:020000040800F2
:1000000048990020D50100084B540008D148000849
:1000100049540008050D0008296900080000000087
:100020000000000000000000000000009D630008C8
:10003000AB0E000800000000475500089F63000851
:10004000EF010008EF010008EF010008EF010008D0
:10005000EF010008EF010008EF0100086512000839
:10006000EF010008EF010008EF010008F10D0008A2
:10007000EF010008EF010008EF010008EF010008A0
:10008000EF010008EF010008EF010008EF01000890
:10009000EF010008EF010008EF010008EF01000880
:1000A000EF010008E9630008EF010008EF01000814
:1000B000F5630008EF010008EF010008EF010008F8
:1000C000EF010008E1480008D5480008EF010008EA
:1000D000EF010008EF010008EF010008EF01000840
:1000E0005D120008EF010008EF010008EF010008B1
:1000F000EF010008EF010008EF0100080000000018
:10010000EF010008EF010008EF0100088158000826
:10011000EF010008EF010008EF010008EF010008FF
:10012000EF010008EF010008EF010008EF010008EF
:10013000EF010008EF010008EF010008EF010008DF
:10014000EF010008EF010008EF010008EF010008CF
:10015000EF010008EF010008EF010008EF010008BF
:10016000EF010008EF010008EF010008EF010008AF
:10017000EF010008EF01000800000000EF01000897
:10018000EF010008EF010008EF010008EF0100088F
:10019000EF010008EF01000800000000000000006F
:1001A0000000000000000000EF010008EF0100085F
:1001B000EF010008EF010008FD0D0008DFF810D086
:1001C00000F0A0FB004800475D740008AFF300801A
:1001D000489900200648804706480047FEE7FEE7AA
:1001E000FEE7FEE7FEE7FEE7FEE7FEE7FEE7FEE7E7
:1001F000A5630008BD0100082DE9F05F0546002059
:1002000092469B4688460646814640241BE0284687
:1002100041464746224600F08FFA53465A46C01AD6
:10022000914110D311461846224600F076FA2D1A55
:1002300067EB01084F4622460120002100F06DFACD
:1002400017EB00094E41201EA4F10104DFDC4846F3
:1002500031462A46434600F000B830BCBDE8C09F96
:1002600040EA01039B0703D009E008C9121F08C038
:10027000042AFAD203E011F8013B00F8013B521EB8
:10028000F9D27047D2B201E000F8012B491EFBD22F
:1002900070470022F6E710B513460A460446194691
:1002A000FFF7F0FF204610BD30B505462A460B4645
:1002B00012F8010B13F8014B08B1A042F8D01CB1A1
:1002C000002802D06D1CF1E7284630BD10B5044669
:1002D00004E00B7800F8013B03B1491C521EF8D230
:1002E000204610BD421C10F8011B0029FBD1801ACA
:1002F0007047034611F8012B00F8012B002AF9D1B1
:100300001846704770B500B91068002512E00B461A
:1003100002E0A64203D05B1C1C78002CF9D1E3B2AA
:100320002B4305D02CB125B1002100F8011B04E0BE
:100330000546401C0678002EE9D11060284670BDA5
:10034000004ADFE7040100202DE9FE4F804681EAE4
:100350000300C00F0C46009021F0004123F000453F
:10036000B8EB0200A94105D24046214690461C4602
:100370000B46024623F00040104347D0270DC7F339
:100380000A00C3F30A510290401A019040286BDA28
:10039000C3F3130040F4801B0098924620B1002361
:1003A000D2EB030A63EB0B0B01985946C0F14002F4
:1003B000504600F0B2F906460D4650465946019A9D
:1003C00000F0CAF910EB08006141002487EA1152DD
:1003D00084EAE7731A4340D0009A62B3019A012A73
:1003E0004FEA075215DC001B61EB02014FF000429F
:1003F00002EA0752CDE90042001C41F58011324665
:100400002B4600F001FA03B000F045B84046214603
:10041000F9E7001B61EB0201001C41F58013001895
:100420005B412018A2F5001747EB030140EAD570A5
:10043000B6196D4111E06D084FEA360645EAC07500
:100440004FEA0752001B61EB0201001C41F58011CD
:1004500049084FEA30000019514132462B4603B09B
:1004600000F01CB800F0C1B9009801224000002340
:10047000D0EB020263EBE073009821464FEAE07490
:10048000B8EB000061EB0401E9E783F000435BE7B0
:1004900081F0004158E730BCBDE8C08F30BCBDE8FA
:1004A000C04FFFF7DFBF2DE9FE4F81EA030404F0E0
:1004B000004421F0004100944FF0000B23F0004372
:1004C00050EA01045ED052EA03045BD0C3F30A543D
:1004D000C1F30A552C44A4F2F3340194A0FB025456
:1004E000C1F3130141F48011C3F3130343F48013E8
:1004F00001FB024400FB034E840A970A44EA81543C
:1005000047EA8357A4FB076802958D0A05FB078518
:100510004FEA932C04FB0C542705029D4FEA065822
:1005200047EA1637B5EB08056EEB070C870E920EFF
:1005300047EA811742EA8312A7FB0201B6EB0B01DF
:1005400064EB00042B0D43EA0C335E1844EB1C50A3
:10055000DA465146E7FB0201C5F313044FEA0B33B9
:1005600043EA14534FEA0432019C43EA0603A4F120
:100570000C040294009CCDE900B400F045F903B0EE
:1005800000F003B800200146F9E730BCBDE8C08F99
:100590002DE9F04D81EA030404F0004B21F0004501
:1005A00014464FF0000A23F0004150EA050220D023
:1005B00054EA01021DD0C5F30A570246C5F31303DE
:1005C000C1F31300C1F30A5640F4801543F48013BD
:1005D000A7EB0608101BD64608F2FD3873EB0500A2
:1005E00002D308F1010801E092185B41B8F1000F55
:1005F00003DA00200146BDE8F08D00204FF48011A1
:10060000064684460EE0171B73EB050705D3121B45
:1006100063EB050306434CEA010C49084FEA30003E
:1006200092185B4150EA0107EDD152EA030012D063
:1006300082EA040083EA0501084305D0101BAB41A0
:1006400006D20122002306E000224FF0004302E020
:100650006FF0010253101AEB06004CEB085110EB3F
:100660000A0041EB0B01BDE8F04D00F0BEB80EB53D
:10067000C10F80EAE0700844CA07002140F233430A
:100680008DE80E000A460B4600F0BEF803B000BD30
:1006900000F0004230F000400AD0C10D01F5607159
:1006A000C0F3160042EA0151C208400711437047E7
:1006B00000200146704701F0004330B421F00041B2
:1006C00050EA010206D00A0DA2F56072C1F31301CF
:1006D000002A02DC30BC00207047440F44EAC10409
:1006E000C100E01830BC00EBC25000F047B830B594
:1006F0000B46014600202022012409E021FA02F5E0
:100700009D4205D303FA02F5491B04FA02F5284479
:10071000151EA2F10102F1DC30BD202A04DB203AD3
:1007200000FA02F1002070479140C2F1200320FA44
:1007300003F3194390407047202A04DB203A21FA42
:1007400002F00021704721FA02F3D040C2F12002EA
:100750009140084319467047202A06DBCB17203A00
:1007600041FA02F043EAE07306E041FA02F3D040B6
:10077000C2F1200291400843194670470029A8BFE2
:100780007047401C490008BF20F00100704710B4BA
:10079000B0FA80FC00FA0CF050EA010404BF10BC6F
:1007A000704749B1CCF1200421FA04F411FA0CF19C
:1007B00018BF012121430843A3EB0C01CB1D4FEAD5
:1007C00000614FEA102042BF002010BC704700EBD0
:1007D000C35010440029A4BF10BC7047401C4900FE
:1007E00008BF20F0010010BC704710B5141E73F153
:1007F000000408DA401C41F1000192185B411A43E1
:1008000001D120F0010010BD2DE9F04D92469B462C
:1008100011B1B1FA81F202E0B0FA80F220329046D2
:10082000FFF77BFF04460F4640EA0A0041EA0B014E
:1008300053465A46084313D0114653EA010019D0D3
:10084000C8F140025046FFF777FF05460E46504676
:1008500059464246FFF761FF084305D0012004E0F6
:1008600020463946BDE8F08D0020054346EAE07693
:100870002C4337430A986305E40AA0EB08000022E2
:10088000FD0A44EA47540A3002D500200146E9E750
:10089000010510196941DDE9084500196941BDE804
:1008A000F04DA2E7C1F30A52C1F3130140F2FF3346
:1008B00041F480119A4202DA00200146704740F26A
:1008C00033439A42A2F2334202DC5242FFF734BF72
:1008D000FFF723BF30B5041E71F1000404DB4FF0B5
:1008E0000044404264EB0101141E73F1000405DB77
:1008F0001C464FF00043524263EB0403994208BF89
:10090000904230BD064C074D06E0E06840F0010320
:1009100094E8070098471034AC42F6D3FFF752FC36
:10092000807C0008B07C000870B5044615460E4671
:100930000846FFF7D7FC81B2D4F820313046D4F80E
:10094000F8289847002821DD4FF4FA66D4F82431BE
:1009500031462846D4F8F82898470446401EB0424D
:1009600012D2B44200D1641E0020285509A12846A5
:10097000FFF79AFC08B1002070BD09A12846FFF7D7
:1009800093FC08B1052070BD241D01D0042070BD6A
:10099000062070BD0D0A4F4B0D0A3E2000000000DE
:1009A0000D0A4552524F520070B50C4600252DA13C
:1009B000801CFFF7C5FC002852D02A466D1CEDB202
:1009C0000C2A40D2DFE802F0060A11171D23262B5D
:1009D0002E31343A01462122204603E001462122ED
:1009E00004F12100FFF772FC2DE0002104F08AFDE4
:1009F00084F8420027E0002104F084FD84F84300DD
:100A000021E0002104F07EFD84F847001BE004F1A2
:100A1000480101E004F14C0104F018FD13E004F179
:100A20005001F9E704F15401F6E704F15801F3E746
:100A3000002104F067FD84F8440004E0002104F084
:100A400061FD84F8460007A10020FFF779FC00282B
:100A500006D010F8011C2C29AFD16D1CEDB2ACE70B
:100A600070BD00002C00000070B50A460546002449
:100A70001DA1901C33E02146641CE4B207292CD24E
:100A8000DFE801F004080D12171C220001462022A5
:100A9000284620E00146182205F120001BE001460F
:100AA000102205F1380016E00146102205F1480039
:100AB00011E00146102205F158000CE0002104F07D
:100AC00021FDC5F8880008E008A1FFF739FC0146C0
:100AD000202205F16800FFF7F9FB03A10020FFF7D2
:100AE0002FFC0028C7D170BD2C0000000D000000B5
:100AF0002DE9F04704461F46914688460846089E61
:100B0000FFF7F0FB85B2E8072ED1D4F82031294653
:100B10004046D4F8F828984780B2A84228D1D4F8A3
:100B2000203139464846D4F8F8289847B8421BD1B6
:100B3000D4F8243100213046D4F8F828984700280A
:100B400010DD002131540BA13046FFF7ADFB10B191
:100B50000020BDE8F0870AA13046FFF7A5FB18B1D9
:100B60000520F6E7001D01D00220F2E70620F0E79D
:100B70000420EEE70D0A4F4B0D0A3E200000000056
:100B80000D0A4552524F520070B586B00D46040012
:100B900018D12448C16C41F00201C164C16C01F05C
:100BA00002010591C16C41F00201C164C16C01F008
:100BB00002010591016E41F480410166006E00F46E
:100BC0008040059018480226694630F81400CDE9A7
:100BD00000060020CDE902061348001D30F814007D
:100BE0000490124850F8240001F0F8F90E486946C4
:100BF000801C30F81400CDE900060B48801D30F849
:100C0000140004900948001D50F8240001F0E6F992
:100C10000648001F50F824002860284603F085FB92
:100C200006B070BD00100240B47B0008F800002040
:100C300000B587B040B90D49CA6C42F00202CA64DF
:100C4000C96C01F002010591094951F82010009189
:100C5000012101910021029102210391054951F8DE
:100C60002000694601F0BAF907B000BD001002404B
:100C7000BC7B0008EC00002030B504461D4887B05E
:100C8000C26C42F00402C264C06C1C4B00F0040051
:100C9000059019480122F1B101291AD130F8140048
:100CA00000900320CDE902201548019053F824005C
:100CB000694601F093F9104D0022AD1C0F2115F883
:100CC000140040B201F076FD15F8140040B201F0B6
:100CD00063FD07B030BD30F8140000900020CDE96E
:100CE00001020220039053F82400694601F076F9CE
:100CF000EFE7000000100240B07B0008F000002089
:100D000000001110FEE710B5806A0321016500F0B4
:100D10005FFD10BD10B5806A00F05AFE10BD10B521
:100D2000806A00F05BFE10BD1549884201D10020A9
:100D3000704713492031884201D101207047104982
:100D40004031884201D1022070470D4980318842EC
:100D500001D1042070470A49A031884201D1052001
:100D600070470749C031884201D1062070470449C5
:100D7000E031884201D1072070470320704700000E
:100D800000600140426B0168002A0A6811D022F01D
:100D900001020A6001680A6842F400220A600168E0
:100DA0000A6842F001020A6090F84C10032904D04E
:100DB00010E042F400320A600CE0816B21B9016856
:100DC0000A6842F002020A6090F8401001290AD035
:100DD0000121816490F84C10012906D05FF00401D4
:100DE00080F84C107047416CF3E70221F8E70000EF
:100DF000014800F0D4BE0000EC180020014800F0CB
:100E000061BE0000EC1800200D4B416C026821F01F
:100E100003019A4201D20B4B01E00A4B1C331944E7
:100E20008164D1B214220839B1FBF2F1054A803253
:100E3000C26401F01F02012191400165704700006A
:100E400008040240000802400179074A02EB8102CF
:100E50004265054A4432491E826501F003020121C0
:100E60009140C16570470000FC08024030B5D0E9F0
:100E700013456560446D14B1D0E91645656090F87E
:100E8000444004F01C050124AC40056C6C6004680F
:100E900063608368102B036803D099600068C260A8
:100EA00030BD9A600068C16030BD70472DE9F041E7
:100EB0001D4616460446002939D0BEB30A4604F53D
:100EC00094701CA1074605F009FE3A4611462046DB
:100ED000FFF72AFD002827D1324618A1384605F031
:100EE000FDFD3A4611462046FFF71EFD00281BD1A6
:100EF00084F88C502A4613A1384605F0EFFD3A4697
:100F000011462046FFF710FD00280DD10FA13846ED
:100F100005F0E4FD3A4611462046FFF705FD00289E
:100F200002D1012184F8D210BDE8F081FFE7022050
:100F3000FAE7000043313D25730D000043323D25A3
:100F4000730D000043333D25640D000043300D0058
:100F500070B504460E4600F594700AA1054605F0EA
:100F6000BDFD2A4611462046FFF7DEFC050007D1ED
:100F700005A104F59570FFF7E3F9314604F07FFA17
:100F8000284670BD5A350D000D0A000070B50446A4
:100F900000F5947008A1064605F0A0FD3246114602
:100FA0002046FFF7C1FC050004D104F18D01304655
:100FB000FFF7FAFC284670BD433F0D0070B50446AC
:100FC00047F23050C4F8F8080225D4F81411002074
:100FD000884760B904F59472164606A12046FFF7CB
:100FE000A3FC050003D131462046FFF73DFD28460E
:100FF00070BD0000493F0D0A0000000070B50446B6
:1010000000F594700BA1054605F068FD2A461146CF
:101010002046FFF789FC38B994F82A1104F1D20070
:10102000312904D00021017094F8D20070BD012153
:10103000F9E7000043530D0030B5DDE9035458B122
:1010400051B14AB145B13CB1C0F8244100F58A70B4
:1010500080E82E00002030BD022030BD2DE9F84F81
:10106000DDE90A761D469246814606B901264FF40F
:101070009660854200D305460A4609F594703D8086
:1010800019A1804605F02AFD424611464846FFF761
:101090004BFC04001AD1324615A1404605F01EFD56
:1010A000424611464846FFF73FFC04000ED12A464F
:1010B00011A1404605F012FD2B46524641464846D6
:1010C000CDF80080FFF714FD040002D0022C06D0FA
:1010D00007E00CA14046FFF7E7F810B1022400201A
:1010E0003880204600F012B850303D25640D0000D5
:1010F00053323D256C750D0053333D253034640D5E
:10110000000000002D310D0A0000000018BCBDE8F1
:10111000E08F00007CB5054608780C4608B103282E
:1011200001D1A08850B305F59470A27839A1064684
:1011300005F0D4FC324611462846FFF7F5FB00289F
:101140001DD1227835A1304605F0C8FC3246114643
:101150002846FFF7E9FB002811D1E28831A130468B
:1011600005F0BCFC324611462846FFF7DDFB00289F
:1011700005D1207820B1032802D03FE002207CBDB9
:10118000A2882AA1304605F0A9FC3246114628461D
:10119000FFF7CAFB0028F2D1207808B103282DD12F
:1011A000E17AA07ACDE90001637A227A21A1304662
:1011B00005F094FC324611462846FFF7B5FB00289F
:1011C000DDD12078032819D162781EA1304605F0C0
:1011D00085FC324611462846FFF7A6FB0028CED1F3
:1011E000207803280AD119A1304605F077FC324651
:1011F00011462846FFF798FB0028C0D115A13046BC
:1012000005F06CFC324602B02846BDE8704011463D
:10121000FFF78ABB50303D25640D000050313D255D
:10122000640D000050323D25640D000050343D2512
:10123000640D000050333D25642E25642E25642E58
:1012400025640D0050393D25640D000050423D30AD
:101250000D00000050363D310D0000004FF40050ED
:1012600000F0B0BE022000F0ADBE72B6FEE7000096
:101270002DE9F04186B000270E468046049700F025
:1012800077F8040001D016A003E000F079FE18B151
:1012900017A005F013FC1EE0404600F08DF905464E
:1012A00008EB0600401E00F087F9461B4046761CFE
:1012B00000F05CF901AA009782E8610004A9684681
:1012C00000F082FD28B100F0F5FD0FA005F0F6FB5F
:1012D000012400F0F5FD06B02046BDE8F0810000D5
:1012E00063616E6E6F7420696E69740A000000009D
:1012F0004552524F522063616E6E6F7420756E6C52
:101300006F636B0A000000004552524F5220666C1A
:101310006173682065726173650A0000124A117F6B
:101320001248012901D003290BD1036843F400635B
:101330000360036823F400630360036843F40073ED
:101340000360022901D003290BD1016841F48051C7
:101350000160016821F480510160016841F48061FD
:101360000160002010777047CC0000200020024070
:1013700010B5012400F004FE08B10BA00EE01349E3
:10138000886940F0704088614CF2FA30086148F298
:101390009100086100F094FD18B10DA005F08EFBDE
:1013A00000E00024204610BD464C4153485F49668A
:1013B0005F496E6974203A206661696C65642074C7
:1013C0006F20756E6C6F636B0A0000000020024096
:1013D000464C4153485F49665F496E6974203A2024
:1013E0006661696C656420746F206C6F636B0A00C2
:1013F0000C490A6A520210D5C20703D04A6942F06A
:1014000004024A61800703D5486940F400404861FE
:10141000486940F4803048617047486948F20402E6
:101420001043F4E7002002400D4A136A5B0201D525
:10143000C90703D0516921F4006102E0516941F408
:1014400000615161516960F3CA015161506940F016
:1014500002005061506940F48030506170470000D4
:1014600000200240054910B54C6944F001044C616C
:101470000260BFF36F8F436010BD00000020024088
:10148000094A10B55469802344F480245461EFF371
:10149000108272B610C910C05B1E13F0FF03F9D1A1
:1014A00082F3108810BD00000020024070B5054690
:1014B00000F094FE0646134C08E0681C06D000F0CD
:1014C0008DFE801BA84201D3032070BD2069C0039C
:1014D000F3D420690C4908400CD00C494A680243F7
:1014E0004A60010F01D0A169A161010100D0206112
:1014F000012070BD2069C00701D0012020610020BB
:1015000070BD000000200240FAC30200CC000020A1
:101510002DE9F0471646894680460024FFF728FF4C
:10152000050020D100F02CFDC0B10120BDE8F087FE
:1015300009EBC4074146D7E90023002000F0CAFCAC
:1015400038B9D7E90023D8E9000150405940084391
:1015500001D0012505E008F10808641CB4EBD60FA2
:10156000E6D300F0ADFC2846E0E7000030B51049B6
:1015700009684FF40014CD050E494FF000630A6866
:101580006FEA020189B20AD409B111048C0903EB94
:101590005401814201D9012030BD022030BD09B182
:1015A00011048C0903EB54018142F6D8F3E70000E3
:1015B00000000140E075FF1F30B50F494FF40013E4
:1015C0000968CA431404240C0CD00C045FEA941478
:1015D0004FF0006505EB5404844205D9A0F100608A
:1015E000000B30BD1C46F3E71204120C01D00904B5
:1015F0008B09A0EB5300F1E7E075FF1F70B5040005
:1016000006D02068FFF790FB374D55F8200008B151
:10161000012070BD204600F06FF834480168491C75
:10162000016000683249012819D13248026822F06D
:10163000804202600268A3681A430260026822F4D2
:101640007F0202602279012A05D10268A38901EB99
:1016500003431A430260026842F0004202602068BD
:10166000026822F4714202602268106823691843FC
:10167000D4E905363343184310602068026822F02D
:101680000F020260D4E907200243206803681A436E
:1016900002602068826822F45F02826020688268AB
:1016A000636A1A43238D01EB03410A438260206879
:1016B000416801F007014160E06A216B000240EAE5
:1016C000C10120684268114341602068016841F00F
:1016D00080010160012084F834002068FFF724FBBA
:1016E00045F82040002070BD98190020C800002057
:1016F0000000FFFF0060014030B5ABB0142125A809
:10170000FEF7C7FD94216846FEF7C3FD1B4C6068D9
:10171000002830D14FF48030002500902195684694
:1017200001F08EF808B1FFF7A0FD21681448491CAC
:101730002160012907D1016E41F080710166016EBF
:1017400001F080712A91C16C41F01001C164C06C3C
:1017500025A900F010002A904FF420702590022057
:10176000CDE926050620CDE92850064800F036FCD4
:101770006068401C60602BB030BD0000B4000020E9
:10178000001002400010004870B590F84C40002353
:10179000C4B1FF2C16D0046825680C4E3540256076
:1017A00004686FF30F01012A256804D045EA01217E
:1017B0002160026307E04FF4802646EA01210D43D1
:1017C0002560F6E70123184670BD0000FFFFFBF817
:1017D0007047000070B5040031D03C492068884251
:1017E00005D1606801282AD0E068012827D00125AA
:1017F000002065642063A5642065204600F06CF835
:101800002068016821F400210160207A0128206805
:10181000016816D021F000510160607A012820682B
:10182000016811D021F4001101602068016847F6B9
:10183000087291430160E068022808D00CE00120A2
:1018400070BD41F00051E7E741F40011ECE720687A
:101850000168626911430160207C012820680168E9
:101860002ED021F010010160607C01282068016801
:1018700029D021F02001016020684169144A1140FB
:10188000416120684169E269124B1143228C03EBEC
:101890000242636A5B1E1A431143416160686063E0
:1018A000E068A063A069E063207C84F840002068C1
:1018B000016841F00101016084F84C50002070BDC6
:1018C00041F01001CFE741F02001D4E70061014071
:1018D00000FF001C0000FFFF70B5B0B006461421E9
:1018E00025A8FEF7D6FC94216846FEF7D2FC324CC0
:1018F0000025606878BB4FF48030009021956846E1
:1019000000F09EFF08B1FFF7B0FC21682B48491C8E
:101910002160012907D1016E41F080710166016EDD
:1019200001F080712E91C16C41F01001C164C06C56
:1019300025A900F010002E904FF420702590022071
:10194000CDE926050620CDE928501D4800F046FBCC
:101950006068401C60601B493068884229D11B4C7C
:10196000194820605620C4E901058020C4E90350CD
:10197000800060618000A0612020C4E90705204646
:1019800000F06AF908B1FFF770FC4FF40030CDE9C0
:101990002A5001208DF8B0508DF8B1002D902AA961
:1019A0000A4800F065F808B1FFF75FFCF462B46222
:1019B000A66230B070BD0000B400002000100240EC
:1019C000001000480061014008000240EC180020AF
:1019D0000149012048707047100000200149012092
:1019E000087070471000002070B50E0004464FF0DC
:1019F00000052ED06AB320680068800229D5606B8C
:101A000030B9206B20B9A06AC06940B1202820D02D
:101A100094F84C00012805D0032803D019E0012ACE
:101A200017D1F5E7A16A0F48C862A16A0E4848635A
:101A3000A06AC16920290FD00021016321681346E3
:101A400032461C31A06A00F067F938B1FF2084F8F3
:101A50004C000125284670BD0449EEE72046FFF7FB
:101A600091F9F7E7150D0008070D00081F0D000894
:101A700010B590F82520012A01D0012010BD90F862
:101A80002420012A1AD0012200F8242F0B784A685A
:101A90000B4C42EA03628B8904EBC3430C7A497A0C
:101AA00043EA04431A4342EA4122416A0B68DBB22B
:101AB0001A430A6000210170084610BD022010BDC3
:101AC0000000F8FF10B50446C06C0068216D0842A4
:101AD0000FD0A06C016821F480710160D4E913017A
:101AE0004160E06B40F40070E063616B09B1204637
:101AF0008847606D002816D0A16D0968E26D11421B
:101B000011D0016821F480710160D4E916014160AF
:101B1000E06B40F48060E063616B002903D02046F5
:101B2000BDE81040084710BD10B590F825100024FE
:101B3000022903D00421C16301242BE001680A6853
:101B400022F00E020A6001680A6822F001020A60AF
:101B5000816C0A6822F480720A6090F84410036C69
:101B600001F01C01012202FA01F15960D0E91313BE
:101B70004B60416D31B10B6823F480730B60D0E989
:101B800016134B6080F82520002180F82410816B0B
:101B900001B18847204610BD90F825007047F0B489
:101BA000016C0C6801680D6890F8442002F01C0676
:101BB000042202FA06F3234211D06B070FD50B68FB
:101BC0009B0603D40B6823F004030B6090F84410C9
:101BD00001F01C018A40016C4A60016B1DE0022388
:101BE00003FA06F727424FF0000C4FF0010218D01D
:101BF000AF0716D50C68A40605D40C6824F00A04B7
:101C00000C6080F8252090F8441001F01C018B40F6
:101C1000016C4B6080F824C0C16A00291AD0F0BC66
:101C200008470823B340234214D02B0712D50B6872
:101C300023F00E030B6090F84410036C01F01C01BC
:101C400002FA01F15960C26380F8252080F824C0AF
:101C5000416BE2E7F0BC704770B504000CD02B4A32
:101C600021681420914209D2294A0A44B2FBF0F0BB
:101C70008000606427480AE0012070BD234A524278
:101C80000A44B2FBF0F08000606420480838206409
:101C9000022084F825000A6847F6F0708243D4E9F0
:101CA00002031843D4E904352B431843A3691843AE
:101CB000E3691843236A1843104308602046FFF77E
:101CC000A3F8A0680025B0F5804F00D16560A16C35
:101CD00020790860D4E9130141606068401E032840
:101CE00008D82046FFF7B0F8606D0560D4E916010A
:101CF000416002E06565A565E565E563012084F85E
:101D0000250084F82450002070BD00000804024023
:101D1000F8FFFDBF0000024070B5044690F82400B3
:101D2000002501280CD0012084F8240094F82560B7
:101D30000020012E06D084F824000225284670BD1C
:101D4000022070BD022684F82560E06320680668E2
:101D500026F0010606602046FFF788F8206B002871
:101D60002068016802D041F00E0106E021F0040174
:101D700001602068016841F00A010160A06C0168FF
:101D8000C90303D5016841F480710160606D18B129
:101D9000016841F4807101602068016841F001012F
:101DA0000160CBE770B5044600F018FA0546601CE8
:101DB00002D004480078044400F010FA401BA0420E
:101DC000FAD370BDBC0000202DE9F05F0546354810
:101DD0008946017801290CD00127804607704CF212
:101DE000503B5846FFF762FB06004FF0000A03D055
:101DF00053E0022000F05AB851464046C8F804A00B
:101E0000294C226892050ED5216821F400712160C9
:101E10002168490505D5216821F4806121600321ED
:101E200009E0077708E02268520504D5216821F40B
:101E300080612160022101772868012807D04FF0D6
:101E4000FF31C9F8001040F2FA7BAF681EE0686805
:101E5000FFF7CEFA5846FFF729FB0646606948F2BD
:101E600004018843606116E038466968FFF7DCFAD0
:101E70004CF25030FFF71AFB0600606920EA0B00B5
:101E8000606102D0C9F8007005E07F1CD5E902014D
:101E90000844B842E8D8FFF741FA88F800A0304675
:101EA000A8E70000CC0000200020024030BCBDE8C4
:101EB000C09F00000148406870470000CC0000202F
:101EC0000348416941F00041416100207047000032
:101ED000002002402DE9FF5F254C06469046207801
:101EE0009A4601280BD0012020704CF2503B5846F6
:101EF000FFF7DCFA07004FF0000904D02AE00220C7
:101F000004B000F039B84846C4F80490194D296867
:101F1000490504D5286820F48060286002202077D5
:101F200026B1012E09D0022E07D00CE042465346BE
:101F30000198FFF797FA012612E041460198FFF752
:101F40009FFA022E0AD05846FFF7B0FA4FEA000770
:101F5000FFF7E4F984F800903846D1E74FF4802683
:101F60005846FFF7A3FA07466869B0436861EFE790
:101F7000CC0000200020024030BCBDE8C09F000023
:101F8000064900204A69002A07DA054A8A60054A9C
:101F90008A604969002900DA012070470020024068
:101FA00023016745AB89EFCD022807D0B0F5005F6C
:101FB00003D103490879401C0871704703F00CBF36
:101FC00010000020044910B50A68024202D00860DF
:101FD000FFF7EAFF10BD0000140401402DE9FC4F9B
:101FE000DFF8B4A1002301250AF1040B03244FF00C
:101FF0000F0C0BF1040EC7E005FA03F632406FD068
:102000004F68012F05D0022F03D0112F01D0122FBE
:1020100017D1D0F808905F0004FA07F829EA0809F8
:102020000097D1F80C8008FA07F848EA0908C0F8C8
:1020300008804768B7430E79C6F300169E403E43BA
:102040004660C6684FEA430804FA08F7BE430197A2
:102050008F6807FA08F73743C7604E68022E01D031
:10206000122E13D1DE0800EB86060096366A5F0753
:10207000FF0E0CFA07F926EA0906D1F8109009FAC2
:1020800007F949EA0609009EC6F820900668019FF4
:10209000BE430F7907F0030707FA08F737430760D5
:1020A0004E68F6006FD53D4E376E47F00107376634
:1020B000366E23F0030706F001060096384E3E44C4
:1020C000B146B6689F074FEA17780CFA08F7BE4387
:1020D000B0F1904F05D0334FB84204D1012721E031
:1020E00051E000271EE0304FB84201D1022719E02D
:1020F0002E4FB84201D1032714E02D4FB84201D131
:1021000004270FE02B4FB84201D105270AE02A4FE0
:10211000B84201D1062705E0284FB84201D1072770
:1021200000E0082707FA08F73743C9F80870DAF81B
:1021300000605746D1F8048096435FEAC83800D55E
:1021400016433E60DBF800605F46D1F8048096439A
:102150005FEA883800D516433E60DEF800607746B7
:10216000D1F8048096435FEAC82800D516433E6044
:10217000094F0C373E68D1F8048096435FEA8828FF
:1021800000D516433E605B1C0A6832FA03F67FF402
:1021900033AF00F015B80000000401400010024009
:1021A000000001400004004800080048000C0048FE
:1021B000001000480014004800180048001C0048A7
:1021C0001CBCBDE8E08F0069084000D001207047CA
:1021D0000AB18161704781627047000001488068E0
:1021E00070470000BC00002090F84120202A24D134
:1021F00090F84020012A20D0012280F8402024229B
:1022000080F841200268136823F00103136002681C
:10221000136823F480531360026813680B43136040
:1022200001680A6842F001020A60202180F841102A
:10223000002180F84010084670470220704790F84F
:102240004120202A22D190F84020012A1ED00122CC
:1022500080F84020242280F841200268136823F08F
:10226000010313600268136823F4706343EA0121D9
:10227000116001680A6842F001020A60202180F8BA
:102280004110002180F84010084670470220704736
:102290007047704730B403689A691968D243D4050F
:1022A00009D4CC43240606D4446C44F001044464AD
:1022B0004FF48074DC6153050AD4CB431B0607D46A
:1022C000436C43F00803436404684FF48063E361A4
:1022D00092050AD4C943090607D4416C41F00201B2
:1022E000416402684FF40071D161416C11F00B0F31
:1022F00002D030BC02F08ABB30BC704702689169E2
:102300001268436B002B00D01847704770470000DD
:1023100070B5040004D094F84100002510B106E027
:10232000012070BD84F84050204600F07BF9242045
:1023300084F841002068016821F0010101606068B3
:10234000216820F0706008612068816821F40041F4
:102350008160E0680128A06807D040F4044021684B
:102360008860E068022803D006E040F40040F6E709
:1023700021684FF40060486020684168114A1143A9
:1023800041602068C16821F40041C160D4E90401C2
:102390000843A16940EA01202168C860D4E9070127
:1023A0000843216808602068016841F0010101606C
:1023B0006564202084F84100256384F842500020A1
:1023C00070BD000000800002704700002DE9F84F4A
:1023D000044690F84100DDF828A01F4690468B4641
:1023E00020287ED194F8400001287AD0012084F87A
:1023F0004000FFF7F3FE0646012200901923D103A7
:10240000204602F07EFDE0BB222084F8410010202F
:1024100084F8420000256564C4F8248067856563FC
:10242000618D3148FF274FF080784FF00079FF2908
:1024300003D927853A46009039E0618D21850090C7
:102440003AE05946204602F031FD13E002F086FDE5
:10245000B8B92068406A616A0870606A401C6062AE
:10246000208D401E80B22085618D491E6185618D61
:1024700001B168B1608D3246002851462046E5D151
:1024800000E002E002F0ACFDD0B1012000F030B875
:102490005346002280212046009602F032FD00289B
:1024A000F3D1608DFF2804D927853A46009543462D
:1024B000C7E7608D2085009594F828204B46C0E73B
:1024C00021682020C86121684A68084B1A404A6088
:1024D00084F8410084F8425084F840500020D5E749
:1024E000FFE70220D2E700000024008000E800FEA1
:1024F00018BCBDE8E08F00002DE9F84F044690F8C5
:102500004100DDF828A01F4690468B4620287ED14A
:1025100094F8400001287AD0012084F84000FFF7A9
:102520005DFE0646012200901923D103204602F0E9
:10253000E8FCE0BB212084F84100102084F8420030
:1025400000256564C4F8248067856563618D314822
:10255000FF274FF080784FF00079FF2903D92785B6
:102560003A46009039E0618D218500903AE0594665
:10257000204602F09BFC13E002F058FDB8B9606AF7
:10258000216800788862606A401C6062608D401E2D
:102590006085208D401E80B22085618D01B168B1BB
:1025A000608D3246002851462046E5D100E002E029
:1025B00002F016FDD0B1012000F030B853460022E1
:1025C00080212046009602F09CFC0028F3D1608D0B
:1025D000FF2804D927853A4600954346C7E7608D12
:1025E0002085009594F828204B46C0E721682020DC
:1025F000C86121684A68084B1A404A6084F8410063
:1026000084F8425084F840500020D5E7FFE70220CC
:10261000D2E700000020008000E800FE18BCBDE802
:10262000E08F000030B5ABB00446142125A8FDF7BB
:1026300030FE94216846FDF72CFE1F492068884231
:1026400038D18020002500901695684600F0F8F8F3
:1026500008B1FEF70AFE194CE06C40F00200E0649D
:10266000E06C25A900F002002A904FF4406025900C
:102670001220CDE926050320289004202990104837
:10268000FFF7ACFCA06D40F48000A065A06D0022B7
:1026900000F480002A901146212000F08BF82120C0
:1026A00000F07AF800221146222000F083F8222060
:1026B00000F072F82BB030BD00580040001002400E
:1026C000000400487047704702488168027811444E
:1026D00081607047BC00002010B50024032000F08A
:1026E00089F80F2000F008F808B1012401E000F09B
:1026F0003DF8204610BD000000B5014687B000221D
:10270000192000F057F8192000F046F81348016E20
:1027100041F400610166006E05A900F400600690B6
:10272000684600F05FFB00F08FFB0D490D4AB0FBDF
:10273000F1F10D48491E0260416040F2E73200218C
:10274000C0E90321816001F013FC10B1012007B042
:1027500000BD054801F05AFCF9E7000000100240F6
:1027600040420F00002C01404C190020094808B5D8
:10277000016E41F001010166016E01F0010100915D
:10278000816D41F080518165806D00F08050009036
:1027900008BD000000100240002809DB00F01F0205
:1027A000012191404009800000F1E020C0F80011B3
:1027B00070470000F0B40E4B1B680C46C3F30223B5
:1027C000C3F10705042D00D90425191D072901D2DD
:1027D000002300E0DB1E012606FA05F1491E214018
:1027E00099409E40761E16403143F0BC04F08AB9F1
:1027F0000CED00E0064900F0070208684FF6FF0301
:10280000184040EA0220034A104308607047000065
:102810000CED00E00000FA0508480168C1F3412111
:10282000022906D0D0F88000C00505D54FF400700D
:1028300070474FF480607047002070470070004080
:102840002DE9F84F0446002700883E46010504F1B3
:102850002008FE4D1ED5E06E40280AD003DC68B18A
:10286000202804D10FE0602821D080281FD0012724
:102870000FE0E86840F48030E86018E00021201D97
:1028800002F062FE03E00021404602F0F1FE070084
:102890000DD03E462088C0042BD5206FB0F5007FB8
:1028A00016D00DDCC8B1B0F5807F0FD11AE0D5F895
:1028B0009C00E16E20F0E0000843C5F89C00E9E7C9
:1028C000B0F5407F13D0B0F5806F10D001270FE036
:1028D000E86840F48030E86009E00021201D02F043
:1028E00033FE03E00021404602F0C2FE0746F7B186
:1028F0003E46206880033AD5A86D4FF00008C0001E
:1029000009D4A86D40F08050A865A86D4FF001086B
:1029100000F080500090DFF838A3DAF8001041F49E
:102920008071CAF80010FFF759FC814610E0D5F815
:102930009C00216F20F4E0600843C5F89C00D8E7B4
:10294000FFF74CFCA0EB0900022801D9032705E0A2
:10295000DAF80000C005F3D5002F7CD04FEA070657
:10296000B8F1000F03D0A86D20F08050A865207842
:10297000C00707D0D5F88800E16B20F003000843BA
:10298000C5F888002078800707D5D5F88800216C25
:1029900020F00C000843C5F888002078400707D5D0
:1029A000D5F88800616C20F030000843C5F8880035
:1029B0002078000707D5D5F88800A16C20F0C0006A
:1029C0000843C5F888002078C00607D5D5F88800E8
:1029D000E16C20F440700843C5F888002078800638
:1029E00007D5D5F88800216D20F440600843C5F86C
:1029F00088002088800507D5D5F88800616E20F40E
:102A000040200843C5F888002088400507D5D5F840
:102A10008800A16E20F440100843C5F88800207893
:102A2000400607D5D5F88800616D20F44050084372
:102A3000C5F888002078000607D5D5F88800A16D74
:102A400020F440400843C5F888002088C00509D517
:102A5000D5F8880000E027E0E16D20F4403008431D
:102A6000C5F888002068C00207D5D5F89C00216E03
:102A700020F003000843C5F89C0020884FF0006751
:102A800080044FF0806850D5D5F88800616F20F041
:102A900040600843C5F88800606FB8423DD1E868DF
:102AA00040F48010E86040E0D5F8900010F44070E9
:102AB00015D0D4F89010814211D0D5F89000D5F8F7
:102AC000901020F4407041F48031C5F89010D5F892
:102AD000901021F48031C5F89010C5F89000C0071F
:102AE00011D0FFF77BFB074641F2883907E000BFB2
:102AF000FFF774FBC11B494501D9032630E7D5F820
:102B000090008007F4D5D5F89000D4F8901020F408
:102B100040700843C5F8900022E7404505D10121E7
:102B2000201D02F011FD00B10646206800032DD5DE
:102B3000A06F4FF480418842D5F89C0004D140F446
:102B40008040C5F89C000BE020F48040C5F89C0054
:102B5000D5F88800A26F20F040601043C5F88800C7
:102B6000A06FB84203D1E86840F4801004E08842C6
:102B700004D1E86840F48030E86007E0404505D1C2
:102B80000121201D02F0E0FC00B106462068400350
:102B900017D5D5F88800E16F20F040600843C5F8EC
:102BA0008800E06FB84204D1E86840F48010E86023
:102BB00007E0404505D10121201D02F0C5FC00B110
:102BC00006462088400413D5D5F88800D4F8801034
:102BD00020F040500843C5F88800D4F88000B0F1D8
:102BE000805F05D10221201D02F0AEFC00B1064637
:102BF0002068C00308D5D5F89C00D4F8841020F0D4
:102C000004000843C5F89C002068800208D5D5F868
:102C10009C00D4F8881020F018000843C5F89C00E8
:102C20002068C00110D5D5F89C0054F88C1F20F402
:102C300040100843C5F89C002068B0F5001F03D180
:102C4000E86840F48010E860304603E0001002407D
:102C50000070004000F000B818BCBDE8E08F000034
:102C60002DE9F0470E4605004FF000077ED0DFF853
:102C70005C81D8F8000000F00F00B0420CD2D8F808
:102C8000001021F00F013143C8F80010D8F80000FF
:102C900000F00F00B04271D128784D4CC0074BD0E6
:102CA0006868DFF8309103281ED002282ED0002853
:102CB00020682ED04005002860DA00F0D7F848459B
:102CC00006D9A06820F0F00040F08000A0608027C6
:102CD000A068696820F003000843A060FFF77EFA4F
:102CE000814641F2883A20E02068800146D502F012
:102CF00053FD4845ECD9A06810F0F00FE1D02878DA
:102D00008007E5D5A8680028DBD0E1E720688003CC
:102D1000D1E78007CFE700BFFFF760FAA0EB09011A
:102D2000514502D90320BDE8F087A068696800F02A
:102D30000C00B0EB810FEFD12878800705D5A06893
:102D4000A96820F0F000084304E0802F03D1A068B8
:102D500020F0F000A060D8F80010404601F00F010C
:102D6000B1420DD9016821F00F0100E006E03143C6
:102D70000160006800F00F00B04201D00120D2E7EE
:102D80002878400705D5A068E96820F4E06008438A
:102D9000A0602878000706D5A068296920F4605053
:102DA00040EAC100A06000F061F8A1680A4AC1F3DE
:102DB0000311515C01F01F01C84008490860084830
:102DC0000068BDE8F047FFF797BC00000020024014
:102DD0000010024000B4C404507B0008B000002082
:102DE000C00000200F2202600C4A936803F0030326
:102DF0004360936803F0F0038360936803F4E06337
:102E0000C36092684FF4E06303EAD20202610448AF
:102E1000006800F00F0008607047000000100240DA
:102E2000002002400548064900688968054AC1F348
:102E30000221515C01F01F01C8407047B000002022
:102E400000100240907B0008054806490068896828
:102E5000054AC1F3C221515C01F01F01C84070470F
:102E6000B000002000100240907B000870B525499A
:102E7000002318468A68CC6812F00C0204F003069E
:102E8000214C4FEA640509D00C2A05D0042A32D01F
:102E9000082A00D1284670BD012E10D10B681B07EF
:102EA00004D4D1F89430C3F3032302E00B68C3F3D6
:102EB0000313164E56F82330DAB10C2AEBD1C8684A
:102EC00000F00300022818D0032818D01846CA685A
:102ED000CB68C2F30312C3F306234343521CB3FB74
:102EE000F2F2C868C0F34160401C4000B2FBF0F051
:102EF00070BD184670BD204670BD2046E7E72846E5
:102F0000E5E70000001002400024F400607B0008A8
:102F10002DE9F84304006FD0FA4DA86800F00C06C4
:102F2000E86800F003072078C00664D576B10C2E5F
:102F300001D1012F0AD0A069002828687AD040F07A
:102F400001002860FFF74AF980465DE028688007A5
:102F500002D5A0690028DED0216A2868000703D5C1
:102F6000286800F0F00004E0D5F89400F02202EAAE
:102F70001010814216D9084602F048FC00283BD1C7
:102F8000286840F0080028602868216A20F0F000D6
:102F9000084328606868E16920F47F4040EA012026
:102FA000686016E0286840F0080028602868216AF8
:102FB00020F0F000084328606868E16920F47F4051
:102FC00040EA0120686026B9206A02F01FFC002850
:102FD000D5D1FFF74BFFA968CB4AC1F30311515C70
:102FE00001F01F01C840C9490860C9480068FFF7DF
:102FF00083FB00287ED12EE0CAE000BFFFF7EEF889
:10300000A0EB0800022876D828688007F6D5286843
:1030100040F0080028602868216A20F0F00008438A
:1030200028606868E16920F47F4040EA0120686018
:1030300011E0FFE720F001002860FFF7CFF880469D
:1030400006E000BFFFF7CAF8A0EB08000228DAD8B4
:1030500028688007F6D42078C00740D0082E18D002
:103060000C2E01D1032F14D06068B0F5803F17D02B
:10307000B0F5A02F286817D020F480302860286889
:1030800020F4802028606068E0B1FFF7A7F8804650
:1030900014E02868800322D56068002878D01EE0FC
:1030A000286840F48030EDE740F480202860F7E79E
:1030B000FFF794F8A0EB08006428A4D828688003E0
:1030C000F6D50CE0FFF78AF8804605E0FFF786F8B2
:1030D000A0EB0800642896D828688003F6D42078EE
:1030E00080073BD5042E11D00C2E01D1022F0DD01C
:1030F000E06801E0BAE1FFE0002828681ED040F453
:1031000080702860FFF76AF807460CE028684005E1
:103110000CD5E0680028C1D008E000BFFFF75EF8DA
:10312000C01B022893D828684005F7D56868217C21
:1031300020F0FE4040EA016068600FE020F48070FB
:103140002860FFF74BF8074605E000BFFFF746F899
:10315000C01B0228B1D828684005F7D420780007A2
:1031600029D560690028D5F8940012D040F00100FC
:10317000C5F89400FFF732F8074604E0FFF72EF891
:10318000C01B022899D8D5F894008007F6D512E024
:103190002BE120F00100C5F89400FFF71FF8074667
:1031A00005E000BFFFF71AF8C01B022885D8D5F844
:1031B00094008007F6D42078400766D5A86D0027D4
:1031C000C00008D4A86D40F08050A865A86D012704
:1031D00000F0805000904F480168C90512D4016882
:1031E000814641F480710160FEF7F8FF804605E0FA
:1031F000FEF7F4FFA0EB080002287DD8D9F8000004
:10320000C005F5D5A068012816D00528D5F890008E
:1032100017D020F00100C5F89000D5F8900020F0FC
:10322000040000BFC5F89000A06841F28839C0B121
:10323000FEF7D4FF80460FE0D5F8900040F0010083
:10324000F0E740F00400C5F89000F5E7FEF7C6FF90
:10325000A0EB080149454FD8D5F890008007F5D577
:103260000EE0FEF7BBFF804606E000BFFEF7B6FFAC
:10327000A0EB080149453FD8D5F890008007F5D468
:103280001FB1A86D20F08050A8652078800628D551
:10329000606A0028D5F8980012D040F00100C5F807
:1032A0009800FEF79BFF074605E000BFFEF796FF7C
:1032B000C01B022820D8D5F898008007F6D510E06A
:1032C00020F00100C5F89800FEF788FF074604E0EB
:1032D000FEF784FFC01B02280ED8D5F8980080079F
:1032E000F6D4A06AF0B3022816D00C2E7DD0286840
:1032F00020F08070286000E0B7E0286810F0205FC0
:1033000074D0A4E000100240507B0008B000002000
:10331000C000002000700040E868E26A00F003018D
:10332000914228D1216B00F0F0020901103991423D
:1033300021D1626B00F4FE41B1EB022F1BD194F856
:10334000382000F07841B1EBC26F14D1A18F00F4A6
:10335000C00249084905A1F5001191420BD194F82A
:10336000401000E06EE04908490600F0C060A1F19D
:10337000007181424FD00C2E7FD0286840017CD450
:103380002868C00079D4286820F080702860FEF793
:1033900025FF064605E000BFFEF720FF801B022840
:1033A00063D828688001F7D4F4E90B016FF00F02AD
:1033B00002EB01110843218A5204490802EB4151F2
:1033C000A26841EA02210843217D4FF07E4249086C
:1033D00002EB41610843217B40EAC160E968284A69
:1033E00011400843E860286801E046E02BE040F027
:1033F00080702860E86840F08070E860FEF7EEFEBC
:10340000044604E0FEF7EAFE001B02282DD82868D7
:103410008001F7D52FE0286880012CD4286840F07F
:1034200080702860E86840F08070E860FEF7D6FEA3
:10343000044604E0FEF7D2FE001B022815D82868D7
:103440008001F7D517E0E86820F00300E860E8683D
:103450000C490840E860FEF7C1FE044608E000BFE2
:10346000FEF7BCFE001B022802D90320BDE8F8834A
:1034700028688001F4D40020F8E70120F6E7000076
:103480000C809D01FFFFEEFE10B5040011D002205C
:1034900084F85D002068016821F040010160204649
:1034A00000F016F90020206684F85D0084F85C00C6
:1034B00010BD012010BD704738B5016804464A6848
:1034C0008868C043430606D5C30704D1D3435B06CF
:1034D00001D4E16C05E0830708D4D3431B0605D46F
:1034E000216D01B02046BDE830400847830603D572
:1034F000430601D5C30551D4D3439B064ED443069E
:103500000AD494F85D30032B49D0236E43F00403B2
:103510002366CB688B680093830609D4236E43F03F
:10352000010323668B6800930B6823F040030B6054
:10353000C00506D4206E40F0080020662068806830
:103540000090206E002829D02068416821F0E00119
:103550004160012084F85D00900701D4D00722D09B
:103560002068416821F003014160114DA06D40B118
:103570008563A06DFEF7D8FA18B1206E40F04000C8
:103580002066606D002809D08563606DFEF7CCFA77
:10359000002803D0206E40F04000206638BDC86887
:1035A0008868009038BD2046FFF785FF38BD0000D1
:1035B000575B00082DE9F041040009D0606A00253E
:1035C00048B12561C4F8145094F85D0048B10DE08D
:1035D0000120BDE8F0816068B0F5827FF4D0E5613C
:1035E000F2E784F85C50204600F073F8022284F879
:1035F0005D202068016821F040010160E0684FF41F
:10360000E063984201D9002101E04FF48051B0F508
:10361000706F02D0984200D0A562A088268900F47D
:10362000827006F404463043267C06F002063043DE
:10363000267D06F001063043268B06F400763043E3
:10364000267F06F03806304394F8206006F08006A6
:103650003043268D06F40056304326683060A66A53
:103660004FF400570120BE420DD1266B16B1022E39
:1036700004D008E0E6689E4228D9226322681368D5
:1036800043F400631360A269042303EA124294F82E
:10369000243001F4805103F010031A4394F83430BD
:1036A00003F008031A43A38903F470631A430A431F
:1036B00021684A60A16AB94203D1A18D226889B20A
:1036C0001161256684F85D00002082E72063DAE757
:1036D000704770472DE9F84F4FF0000A0446CDF8C7
:1036E00000A0406899461746884655464FF0040B9F
:1036F000B0F5827F01D1A06878B194F85C00012810
:1037000016D0012084F85C00FEF768FD064694F8A8
:103710005D0001280ED00225FDE084F85DB013465F
:103720000A462046CDF8009000F088F900F0FAB87B
:103730000220FBE7B8F1000F71D0002FFCD084F815
:103740005DB0C4F860A0C4F84080A4F84470A4F848
:103750004670C4F838A0A4F83CA0A4F83EA0C4F871
:103760004CA0C4F850A0A06A4FF4005840450ED1B8
:103770002068016821F4005101602068016841F46B
:1037800000510160B4F84600401EA4F84600E0680D
:103790004FF4E067B8422068416802D921F48051B3
:1037A00001E041F480514160A068B0F5004F09D1BB
:1037B0002068016821F0400101602068016821F45F
:1037C0008041016020680168490603D4016841F026
:1037D00040010160E068B8421CD93DE02068816882
:1037E000C9070BD0007B216C0870206C401C206442
:1037F000B4F84600401EA4F846000BE0FEF7EEFCCD
:10380000811B494503D3B9F1FF3F03D038E0B9F13B
:10381000000F35D0B4F846000028DFD120E079E071
:1038200020688168C9070BD0C068216C0880206CB3
:10383000801C2064B4F84600401EA4F846000BE04B
:10384000FEF7CCFC811B494503D3B9F1FF3F03D000
:1038500016E0B9F1000F13D0B4F846000028DFD10C
:10386000A06A404541D12068016841F4805101605F
:1038700001224B4611462046009602F033FD08B166
:10388000032548E0E068B842206803D9C068216C8D
:10389000088002E0007B216C087001224B46114633
:1038A0002046009602F01EFDB8B9E068B0F5706FD2
:1038B00008D02168097B0091B84216D1206B0228FC
:1038C00003D012E02068C0680EE001224B4611468A
:1038D0002046009602F006FD20B1206E40F0020066
:1038E0002066CDE72068007B00903246494620469E
:1038F00002F03AF908B12020206620688168C906E4
:1039000006D5216E41F0020121664FF6EF7181600C
:10391000206E00B10125012084F85D0084F85CA0D0
:10392000284603E718BCBDE8E08F0000F0B413465A
:103930000024826804261AB94268B2F5827F0DD04D
:1039400090F85C20012A0FD0012580F85C5090F897
:103950005D700022012F0AD0022449E080F85D60EA
:10396000F0BC0A4600F01ABA0220F0BC7047C1B1A0
:10397000BBB180F85D6002660164A0F84430A0F835
:10398000463082638287C2870265C1684FF4E06374
:10399000994201684E6806D926F480564E60204947
:1039A00005E0012424E046F480564E601D49C164C0
:1039B0008168B1F5004F09D101680E6826F0400614
:1039C0000E6001680E6826F480460E60816AB1F5CB
:1039D000005F11D0826401684B6843F060034B6064
:1039E00001680B685B0603D40B6843F040030B606F
:1039F00080F85C202046B8E78564C168994203D806
:103A0000016B022900D1816401680B6823F4005323
:103A10000B6001680B6843F400530B60DBE70000A8
:103A2000255C00088D5C000803480168002901D06E
:103A30000021016070470000000000202DE9FF4FC9
:103A400083B04FF0000A0446CDF800A090F85C0067
:103A5000109F1D4693464FF001095646012813D08A
:103A6000012084F85C00FEF7B9FB94F85D108046F5
:103A7000D4E90002036801934368009301290DD043
:103A8000B2F5827F08D103E0022007B000F082B9CE
:103A9000A2680AB9042901D0022674E10499A1B3ED
:103AA000BBF1000F32D085B394F85D10042902D029
:103AB000052184F85D10C4F860A0C4F840B0A4F8F3
:103AC0004650A4F84450049AA263E587A587C4F839
:103AD0004CA0C4F850A0A16A4FF4005B594508D12E
:103AE000016821F4005101602068016841F400512F
:103AF0000160E0684FF4E061884201D8012D07D9E8
:103B00002068426822F4805206E0FFE701263AE18D
:103B10002068426842F4805242602068026852067F
:103B200003D4026842F040020260E06888426068A4
:103B30005AD908B1012D4FD1A06B21680088C86007
:103B4000A06B801CA063E08F401EE08744E02068EB
:103B50008168890724D5E18F11B3B9F1010F1FD115
:103B6000A16B0988C160A06B801CA063E08F401E20
:103B7000E087E08F4FF0000990B9A06A58450FD157
:103B80000198400707D40098000704D52068016811
:103B900041F4007101602068016841F480510160C6
:103BA00020688168C9070FD0B4F8461061B1C068B9
:103BB000216C0880206C801C2064B4F84600401EF4
:103BC000A4F846004FF00109FEF708FBA0EB08003F
:103BD000B84201D3781C75D1E08F0028B7D1B4F872
:103BE00046000028B3D18CE008B1012D15D1E08F3B
:103BF0000128A06B08D921680088C860A06B801CD0
:103C0000A063E08F801E07E0216800780873A06B36
:103C1000401CA063E08F401EE0876BE02068816855
:103C200089072FD5E18F69B3B9F1010F2AD1E18F4F
:103C30000129A16B07D90988C160A06B801CA06312
:103C4000E08F801E06E009780173A06B401CA06322
:103C5000E08F401EE087E08F4FF0000990B9A06A26
:103C600058450FD10198400707D40098000704D5A4
:103C70002068016841F4007101602068016841F426
:103C80008051016020688168C90729D0B4F84610C6
:103C900031B3B4F84610012915D9C068216C0880E9
:103CA000206C801C2064B4F84600801EA4F84600F6
:103CB000B4F84600012811D82068416841F48051C9
:103CC00041600BE02AE0007B216C0870206C401CF6
:103CD0002064B4F84600401EA4F846004FF00109E5
:103CE000FEF77CFAA0EB0800B84202D3781C01D0A2
:103CF00014E09FB1E08F002890D1B4F8460000286E
:103D00008CD1A06A584529D101223B461146204654
:103D1000CDF8008002F0E6FAC0B901E0032632E0F7
:103D2000E068B0F5706F206805D0007B0090206BD4
:103D3000022802D012E0C0680FE001223B46114683
:103D40002046CDF8008002F0CDFA20B1206E40F080
:103D500002002066E2E72068007B0090206881680E
:103D6000C90607D5216E41F0020121664FF6EF71B9
:103D70008160012642463946204601F02FFF10B1EE
:103D8000012620202066012084F85D0084F85CA0D4
:103D900030467AE630BCBDE8C08F0000F0B590F840
:103DA0005C500024012D0DD0012780F85C7090F844
:103DB0005D600025D0F804C0012E0ED0BCF5827FD6
:103DC00009D101E00220F0BDD0F808C0BCF1000F1D
:103DD00001D1042E01D0022454E0D1B1CAB1C3B143
:103DE00090F85D60042E02D0052680F85D600566BF
:103DF00081638387C3870264A0F84430A0F846300B
:103E0000C1684FF4E062914205D9204EC664204E4D
:103E100004E0012436E01F4EC6641F4E0665866A24
:103E2000B6F5005F0AD08564C168914201D8022BC3
:103E300016D301684A6822F4805215E087649142E3
:103E400003D8016B022900D1816401680E6826F451
:103E500000560E6001680E6846F400560E60E3E7F7
:103E600001684A6842F480524A6001684A6842F038
:103E7000E0024A6001680A68520603D40A6842F008
:103E800040020A6080F85C502046F0BD8D58000862
:103E900091590008ED580008DD59000830B590F838
:103EA0005C300024012B0BD0012380F85C30002310
:103EB00041B13AB190F85D50012D05D0022441E0A6
:103EC000022030BD01243DE0032580F85D500366EB
:103ED00081638287C2870364A0F84430A0F846302B
:103EE000C364C168B1F5E06F01D9184900E0184911
:103EF00001658168B1F5004F09D101680A6822F0B7
:103F000040020A6001680A6842F480420A60816ADD
:103F1000B1F5005F09D101680A6822F400520A6015
:103F200001680A6842F400520A6001684A6842F077
:103F3000A0024A6001680A68520603D40A6842F087
:103F400040020A6080F85C30204630BDF75C000813
:103F5000295D000803484168002901D00021416023
:103F6000704700000000002070477047704770479E
:103F700010B5040003D094F83D0010B107E0012013
:103F800010BD002084F83C00204600F023F80220F9
:103F900084F83D00211D206802F032FA012084F8E7
:103FA000480084F83E0084F83F0084F8400084F81C
:103FB000410084F8420084F8430084F8440084F807
:103FC000450084F8460084F8470084F83D0000204E
:103FD00010BD000008B50068B0F1804F12D10A484A
:103FE000816D41F001018165806D002200F00100CA
:103FF000009011461C20FEF7DDFBBDE808401C20A8
:10400000FEF7CABB08BD00000010024090F83D104A
:10401000012901D001207047022180F83D1001687C
:10402000CA6842F00102CA6000681149884211D092
:10403000B0F1804F0ED00F4988420BD00E49884214
:1040400008D00E49884205D00D49884202D00D495A
:10405000884207D181680C4A1140062906D0B1F583
:10406000803F03D0016841F00101016000207047EA
:10407000002C01400004004000080040000C0040FB
:10408000003401400040014007000100704770B556
:104090000446006801694FF00005C943890715D43B
:1040A000C168C943890711D4E91E01610120207745
:1040B000206880698007204602D0FFF7E7FF04E010
:1040C00000F0A7F8204600F0A5F8257720680169E0
:1040D000C943490717D4C168C943490713D46FF0CE
:1040E00004010161022020772068806910F4407F7C
:1040F000204602D0FFF7CAFF04E000F08AF820460D
:1041000000F088F8257720680169C943090716D4AB
:10411000C168C943090712D46FF008010161042086
:1041200020772068C0698007204602D0FFF7AEFFE5
:1041300004E000F06EF8204600F06CF82577206867
:104140000169C943C90617D4C168C943C90613D454
:104150006FF010010161082020772068C06910F419
:10416000407F204602D0FFF791FF04E000F051F8B5
:10417000204600F04FF8257720680169C943C90738
:1041800008D1C168C943C90704D1891E016120460D
:1041900000F042F820680169C943090609D4C168E2
:1041A000C943090605D46FF0800101612046FFF77D
:1041B000DDFE20680169C943C90509D4C168C94346
:1041C000090605D46FF4807101612046FFF7CDFE2A
:1041D00020680169C943490609D4C168C943490631
:1041E00005D46FF040010161204600F09DF8206881
:1041F0000169C94389060BD4C168C943890607D43C
:104200006FF0200101612046BDE87040FFF7AFBEAE
:1042100070BD7047704700002DE9F0470446006804
:104220003D4998B0884201D1FEF74EFA2068B0F1BE
:10423000804F6DD100F08EF900F0C8FF02F076FBE0
:1042400000F01CFF00F07AFF344CA06CFCF720FA61
:1042500007468846606CFCF71BFA05460E46206C44
:10426000FCF716FACDE90E01606FFCF711FACDE903
:104270000C01206FFCF70CFACDE90A01E06EFCF7A7
:1042800007FACDE90801A06EFCF702FA81468A46DA
:10429000606EFCF7FDF9CDE90601206EFCF7F8F938
:1042A000CDE90401E06DFCF7F3F9CDE90201206DE1
:1042B000FCF7EEF9CDE90001606DFCF7E9F941EC9E
:1042C000100B14A853EC102B80E8E001DDE90E017F
:1042D000CDE91201DDE90C01CDE91001DDE90A01AA
:1042E000CDE90E01DDE90801CDE90A9ACDE90C011D
:1042F000DDE90601CDE90801DDE90401CDE90601AA
:10430000608C04900649074802F0E8FB0120A06792
:1043100018B0BDE8F0870000002C0140100000201C
:104320001C7C00087C160020704710B5040003D0E8
:10433000D4F8840010B107E0012010BD002084F8FB
:104340008000204600F026F82420C4F8840020686D
:10435000016821F001010160204602F045F90128C1
:10436000EBD0A06A10B1204602F0AAF8206841689C
:1043700021F4904141602068816821F02A01816028
:104380002068016841F0010101602046BDE810404D
:1043900002F0FAB8704700002DE9F84F0446D0F853
:1043A00088009A4616460D46202870D10DB306B3F4
:1043B00094F8800001286AD0012084F880004FF032
:1043C0000008C4F88C802221C4F88810C4F86C80DE
:1043D0002034FDF703FFA6878146E68754F8180CC2
:1043E0004FF48053FF21203C984208D122691AB132
:1043F0001BE0012000F04DB840F2FF1115E07F22D4
:1044000088B1B0F1805F13D0A4F86080B4F8607018
:10441000984201D1206990B12E46002584F8808011
:1044200007F0FF0825E0266936B9A4F86010EDE72B
:10443000216909B13F21F8E7A4F86020E6E70026EA
:10444000ECE74B46002220212046CDF800A002F0E8
:1044500019FA08B10320CDE72068808C96B100EAF4
:10446000080006F8010B00BFB4F85E00401EA4F877
:104470005E00B4F85E000028E3D12020C4F8880074
:104480000020B7E7384025F8020BEDE7FFE70220F0
:10449000B0E718BCBDE8E08F2DE9F8430446D0F83A
:1044A00084001F4616460D46202851D1DDB1D6B1F5
:1044B00094F8800001284BD0012084F880004FF050
:1044C0000008C4F88C802120C4F884001834FDF75B
:1044D00085FEA6878146E68754F8100C183CB0F597
:1044E000805F03D004E00120BDE8F883206920B19B
:1044F0002E46002584F8808010E00026FAE780210F
:10450000204602F0BFF9B8B9C6B116F8010B216810
:104510000885B4F85600401EA4F85600B4F85600BA
:104520004B464FF0000200970028E8D14FF04001C1
:10453000204602F0A7F930B10320D5E735F8020B89
:10454000C0F30800E3E72020C4F884000020CBE794
:104550000220C9E738B5344C28200A2520700123F1
:104560002246BE2131480095FDF7C6FF01232246B1
:10457000BF212E480095FDF729FF292060700123F7
:10458000621CBE2129480095FDF7B6FF0123621C7D
:10459000BF2126480095FDF719FF2A20A0700123AE
:1045A000A21CBE2121480095FDF7A6FF0123A21CF5
:1045B000BF211E480095FDF709FF2B20E070012365
:1045C000E21CBE2119480095FDF796FF0123E21C6D
:1045D000BF2116480095FDF7F9FEA4F18400B4F957
:1045E00000104182B4F90220231F828293ED020A57
:1045F00093ED041AF8EEC00A00EE102AB8EEC00AD5
:1046000041EE000AC0ED150A827890ED131A00EE13
:10461000102AF8EE400A00EE101AB8EEC00A41EE79
:10462000000AC0ED140A38BD94000020C81700200D
:10463000F8B5A54C10200A2520701B2060700223BD
:104640002246BE21A1480095FDF756FF202020708C
:104650008620607002232246BE219C480095FDF70B
:104660004BFF3220207001232246BE21974800953F
:10467000FDF742FF01232246BF2194480095FDF734
:10468000A5FE04F158072078B8603320207001237C
:104690002246BE218D480095FDF72EFF01232246BC
:1046A000BF218A480095FDF791FE2078F8603520FB
:1046B000207001232246BE2184480095FDF71CFF8F
:1046C00001232246BF2181480095FDF77FFE217816
:1046D000BA6801F0030042EA0020FA68C1F38101E0
:1046E00042EA0121C010B860C810F8603C20207078
:1046F00001232246BE2175480095FDF7FDFE0123EA
:104700002246BF2171480095FDF760FEA4F12806FE
:10471000207870713D20207001232246BE216B4815
:104720000095FDF7E9FE01232246BF216748009569
:10473000FDF74CFE20787179012341EA0020708555
:104740003E2020702246BE2160480095FDF7D4FE31
:1047500001232246BF215D480095FDF737FE2078F2
:10476000B0713F20207001232246BE21574800959A
:10477000FDF7C2FE01232246BF2154480095FDF7F4
:1047800025FE2078B179012341EA002000B2B085EE
:10479000D7E90221891A00EE101AB6F92A1022462A
:1047A000F8EEC00A401A00EE100A3020BE21B8EE22
:1047B000C00A80EE801A87ED041A207043480095E5
:1047C000FDF79AFE01232246BF2140480095FDF7E0
:1047D000FDFD2078B0703120207001232246BE21DB
:1047E0003A480095FDF788FE01232246BF2137484D
:1047F0000095FDF7EBFDB17820784908B1704008CD
:10480000F0703620207001232246BE212F480095EB
:10481000FDF772FE01232246BF212C480095FDF7CB
:10482000D5FD2078F0813720207001232246BE215B
:1048300026480095FDF760FE01232246BF2123484C
:104840000095FDF7C3FD2078F189012341EA00209E
:10485000F0813A2020702246BE211C480095FDF7C9
:104860004BFE01232246BF2118480095FDF7AEFDFF
:10487000207830823B20207001232246BE2113483D
:104880000095FDF739FE01232246BF210F48009510
:10489000FDF79CFD2078318A41EA002000B2308289
:1048A000F178B278891A00EE101AB6F90E10F8EE07
:1048B000C00A401A00EE100AB8EEC00A80EE801A54
:1048C00086ED131AF8BD000038000020C81700203C
:1048D000FEE700000148FDF7DDBC0000C81700201E
:1048E0000148FDF70BBD0000C8170020806A0021B9
:1048F000826B02B19163C26B02B1916300F0ECBABA
:1049000010B50022CC074FF0280306D090F84140A4
:10491000422233EA040400D0F2228C0707D590F833
:10492000414042F04402A34301D042F0B0020B04E4
:1049300001D542F0B802102904D0202905D0402921
:1049400006D007E042F0900204E042F0200201E0CD
:1049500042F04002006801689143016010BD0168A7
:104960008A69D243920701D400228A620068816971
:10497000C943C90703D0816941F0010181617047D2
:104980002DE9F041044690F8410028218143206838
:104990004FF000054FF0080304D0C36184F8405085
:1049A000BDE8F0818169C1F300478169FE2202EA16
:1049B00011468168C1F30902C168D4F80CE001F026
:1049C000FE014FF4004CBEF1020F17D14FF0060E5E
:1049D00006F006060EEAD21E76450ED1A16C491CE1
:1049E000A164A16C0229DBD1A564C36184F84050A5
:1049F00039462046FDF74DFCD2E70E46614620467B
:104A0000FFF77EFF84F840503246F1E770B5044668
:104A100090F84100002584F84250364AE2626585EC
:104A2000626C0A43626428281FD029281DD02A28D6
:104A30001BD048F203012046FFF762FF94F84100C3
:104A4000602802D0202084F841006563206B2A4E44
:104A5000A16B19B1112812D0212810D0E16BE9B354
:104A6000122824D0222822D03EE003212046FFF73E
:104A700047FF282084F8410020486063E6E720686B
:104A80000168490403D5016821F480410160A06BED
:104A9000FDF782F8012827D0A06B866384F8405088
:104AA000A06BFDF741F8002823D0A06B18E0206828
:104AB0000168090403D5016821F400410160E06B3D
:104AC000FDF76AF801280FD0E06B866384F8405048
:104AD000E06BFDF729F800280BD000E004E0E06B64
:104AE000816BBDE8704008472046BDE8704000F08B
:104AF000F3B970BD0000FFFFED4800088D4D0008C0
:104B000070B504461648E06200252563202084F82D
:104B1000410084F84250C8436563400711D42068BF
:104B2000406A616A0870606A401C6062208D40B112
:104B3000401E2085608D401E6085606C40F0040042
:104B4000606448F203012046FFF7DAFE2168102076
:104B5000C86184F840502046FDF736FC70BD000067
:104B60000000FFFF2DE9F04102680446156890F847
:104B700041000E462027D761212806D0292804D0DD
:104B8000222809D02A2807D00DE048F2010120464A
:104B9000FFF7B6FE212005E048F202012046FFF7AC
:104BA000AFFE222020632068416841F4004141604B
:104BB00020684168354A114041602046FFF7CFFE2A
:104BC000E843410406D42068016821F48041016073
:104BD000A06B07E0000409D42068016821F40041BB
:104BE0000160E06B10B1006840686085F0434007E9
:104BF0000FD4206826F00406406A616A0870606A73
:104C0000401C6062208D20B1401E2085608D401EBA
:104C10006085608D18B1606C40F004006064002510
:104C200084F842506563606C68B1616C2046FFF7A0
:104C3000EDFE94F84100282815D131462046BDE804
:104C4000F041FFF75DBFE06A114EB0420DD0204643
:104C500000F020F8E66284F84170256384F8405043
:104C60002046FDF7B1FBBDE8F08194F8410084F8DF
:104C700041702228256384F84050204602D0FDF779
:104C800022FDF0E7FDF71EFDEDE7000000E800FE65
:104C90000000FFFF70B5044600680168002584F835
:104CA0004250C9434A0403D4016821F4804104E01E
:104CB000090403D4016821F40041016094F8411013
:104CC0002820292911D094F841102A290CD184F8E0
:104CD00041002220206302212046FFF711FE84F8C4
:104CE00040502046FDF7EEFC70BD84F841002120C5
:104CF000206301212046FFF703FE84F84050204640
:104D0000FDF7E1FC70BD00002DE9F04104460068AC
:104D100090460E468069C043C00633D40025202744
:104D200020688069C043800615D5701CF8D0FDF757
:104D300055FAA0EB0800B04201D8002EF0D154F88B
:104D4000440F40F0200044F804096770A5702570F6
:104D50000120BDE8F08121681020C8612068C7618A
:104D60002046FFF7FCFD54F8440B4168064A114009
:104D70004160206840F0040044F820096777A57777
:104D80002577E5E70020E4E700E800FE2DE9F041A3
:104D9000C56A044690F840008846012826D00120C4
:104DA00084F840006FEA0807B8066FEA020605D4E7
:104DB000B00603D441462046FFF7D4FE3A49F80630
:104DC0004FF0807231D4F0062FD4638D102083B160
:104DD0002168C861606C40F0040060640DB19542C8
:104DE0005ED1616C2046FFF711FE59E00220BDE85C
:104DF000F08194F84120282A02D1B5F1007F04D037
:104E000094F84120292A05D00CE041462046FFF7BE
:104E100077FE45E08D4205D02168C8612046FFF746
:104E20009EFD3AE02168C8613AE0780715D4700722
:104E300013D4608D60B12068406A626A1070606A45
:104E4000401C6062208D401E2085608D401E608564
:104E5000608D28BB8D4220D122E0380706D4300770
:104E600004D441462046FFF78BFD19E0B80717D45C
:104E7000B00715D4608D68B1606A216800788862D7
:104E8000606A401C6062608D401E6085208D401EFF
:104E9000208505E0954200D015B92046FFF7FAFEBF
:104EA000002084F84000A2E70000FFFFF0B505688D
:104EB000059C68684FF48066064FC1F3090106EA55
:104EC000545641EA02413E431943B043214308434B
:104ED0006860F0BDFF63FF0310B590F8412000212A
:104EE000602A05D0016380F84010FDF70FFA10BD6D
:104EF000202280F84120016380F84010FDF7C8F9B6
:104F000010BD2DE9F0411D4617460E460446DDF85A
:104F1000188008E0681C06D0FDF760F9A0EB0800D7
:104F2000A8420BD855B12068806936EA000012D03B
:104F30000020B842EED00020BDE8F08154F8440FC4
:104F400040F0200044F80409202060700020A07088
:104F500020700120F0E70120EBE700002DE9F0418F
:104F6000002690460F460446202525E04246394655
:104F70002046FFF7C9FE78BB20688069C0438006E1
:104F800013D420688169C943490701D4218DC1B96F
:104F9000C56154F8440B4168104A1140416044F81F
:104FA00020696577A677267716E0FDF717F9A0EB5D
:104FB0000800B84208D83FB120688069C043400764
:104FC000D4D40020BDE8F08154F8440F40F0200014
:104FD00044F80409657026700120F3E700E800FE3C
:104FE00070B516460D4604460DE032462946204669
:104FF000FFF78AFE08B1012070BDFDF7EFF8801BB6
:10500000A84207D835B120688069C0438006ECD437
:10501000002070BD54F8440F40F0200044F804090B
:10502000202060700020A0702070E4E770B5164664
:105030000D4604460FE0324629462046FFF764FE3F
:1050400008B1012070BD681C05D0FDF7C7F8801BB2
:10505000A84207D835B120688069C0438007EAD4E8
:10506000002070BD54F8440F40F0200044F80409BB
:10507000202060700020A0702070E2E770B5214D04
:1050800028202DED028B82B028700A2401232A46A5
:105090003C211D480094FDF72FFA06232A463D21A6
:1050A00019480094FDF792F9A5F19804B5F90000AC
:1050B0002081B5F902606681B5F90450A581FBF73E
:1050C000D6FA9FED128B53EC182BFBF7ECF9FBF79C
:1050D000F2FA20643046FBF7CAFA53EC182BFBF7C0
:1050E000E2F9FBF7E8FA60642846FBF7C0FA53ECF4
:1050F000182BFBF7D8F9FBF7DEFAA06402B0BDEC81
:10510000028B70BDA8000020C8170020000000001E
:105110000000C03F08B5074822210223017000218A
:1051200041700A200090034A3C210348FDF7E4F94E
:1051300008BD000036000020C817002038B5164C06
:1051400028200A25207001232246BA211348009501
:10515000FDF7D2F903232246BB2110480095FDF745
:1051600035F9A0786178000440EA012021780843ED
:10517000A4F13801B0F5000F886502DB401EC04382
:10518000886500EE100ADFED060AB8EEC00A20EED0
:10519000200A81ED170A38BD48000020C8170020FA
:1051A0000000803908B50748102102230170202132
:1051B00041700A200090034ABA210348FDF79CF988
:1051C00008BD00003E000020C81700202DE9F04374
:1051D000514D22202DED068B81B00A242A462870DD
:1051E0000123D42102F5AC700094FDF785F92A461D
:1051F0000C23D52102F5AC700094FDF7E7F8474C7D
:10520000B5F90000A0838146B5F90200E083B5F945
:10521000047080462784B5F90600E082B5F908607D
:105220002683B5F90A506583FBF721FA9FED3CAB65
:1052300053EC1A2BFBF737F99FED3B8B53EC182BF4
:10524000FBF782F89FED3A9B53EC192BFBF7A0F983
:10525000FBF731FA20663046FBF709FA53EC1A2BBC
:10526000FBF721F953EC182BFBF76EF853EC192BD5
:10527000FBF78EF9FBF71FFA60662846FBF7F7F994
:1052800053EC1A2BFBF70FF953EC182BFBF75CF8D8
:1052900053EC192BFBF77CF9FBF70DFAA066484697
:1052A000FBF7E5F99FED24AB53EC1A2BFBF7FBF86A
:1052B00053EC182BFBF748F853EC192BFBF768F964
:1052C000FBF7F9F9E0664046FBF7D1F953EC1A2BEE
:1052D000FBF7E9F853EC182BFBF736F853EC192BD6
:1052E000FBF756F9FBF7E7F920673846FBF7BFF9FC
:1052F00053EC1A2BFBF7D7F853EC182BFBF724F8D9
:1053000053EC192BFBF744F9FBF7D5F9606701B0B3
:10531000BDEC068BBDE8F083701600201000002065
:105320000000000000806E400000000000407F4050
:105330000000000080842E41000000000017F140B2
:10534000F8B50B4C10250A262570657002232246FD
:10535000D42108480096FDF7CFF811202070657021
:1053600002232246D42103480096FDF7C5F8F8BD74
:1053700040000020C817002070B51C481A490024BE
:10538000C0E900140125057245724FF0C041C161AA
:105390001921016227214162FCF71CFA08B172B69B
:1053A000FEE7124810495430C039016005710F21E1
:1053B000C0E902410461446104218461C0E90741FC
:1053C000C0E90945C4620463FCF718F908B172B674
:1053D000FEE7012206490548FCF7D6F9002801D06E
:1053E00072B6FEE770BD0000006101406018002049
:1053F00004000200124810B51049016011494160D3
:1054000000210122C0E90212016141618161C16193
:105410000162FCF77DFF08B172B6FEE70021084883
:10542000FCF7E2FE08B172B6FEE700210448FCF783
:1054300006FF002801D072B6FEE710BD00580040FC
:10544000C8170020B1757030FEE77047F8B5002529
:105450000E46044601270EE08DF8007020782E28B5
:1054600006D06946204600F04DF870556D1CEDB22F
:105470009DF80000044420780028EDD1F8BDF8B56F
:1054800000273BE001228DF8002002783A2A32D032
:1054900000240346EC46264616E02401092D01D8D7
:1054A000EAB20DE0A2F16105052D01D8573A04E0FA
:1054B000A2F14105052D02D8373AD2B200E0002210
:1054C000761C1444F6B25B1C1A78A2F13005092D43
:1054D000E3D9A2F1610EBEF1050FDED9A2F1410EB2
:1054E000BEF1050FD9D9BCF1000F01D08CF80060D6
:1054F000CC557F1CFFB29DF8002010440278002A92
:10550000C0D1F8BDF0B500240578224623462D2DE4
:1055100002D101242246401C6FF02F060578A5F128
:105520003007092F08D803EB8303521C06EB430313
:105530002B44D2B2401CF1E701B10A700CB15842C1
:10554000F0BD1846F0BD70472DE9F041434C0546CB
:105550008846E06800268107286806D0E16801F0E7
:10556000030181420FD170B11AE0012804D0022852
:1055700005D0032807D108E02168890701E02168E8
:105580004905002907DB012664E02168890302D46C
:1055900021684903F5E7E16821F003010143E16077
:1055A000206820F080602060FCF718FE074604E0C9
:1055B000FCF714FEC01B022843D820680001F7D472
:1055C0006FF00F00B8F1000F1BD0B8F1010F24D01D
:1055D000297D4908420502EB4161AA6841EA02219E
:1055E0006A6800EB0210014320691D4A1040014324
:1055F0002161206840F080602060FCF7EFFD0746E5
:1056000021E0A9682A7B090241EAC2616A6800EBCD
:10561000021001432069134AE8E7298A124A49081F
:1056200002EB4151AA6841EA02216A6800EB0210CC
:10563000014320690D4AD9E7FCF7D0FDC01B0228C1
:1056400001D9032606E020680001F5D52069A96983
:10565000084320613046BDE8F081000000100240A0
:105660000F80FFF90F80FF070000E0FF0F809FFF12
:105670002DE9F041434C05468846E0680026810745
:10568000286806D0E16801F0030181420FD170B1B2
:105690001AE0012804D0022805D0032807D108E029
:1056A0002168890701E021684905002907DB0126F7
:1056B00064E02168890302D421684903F5E7E168C1
:1056C00021F003010143E160206820F08050206058
:1056D000FCF784FD074604E0FCF780FDC01B0228B0
:1056E00043D820688000F7D46FF00F00B8F1000FA6
:1056F0001BD0B8F1010F24D0297D4908420502EBE7
:105700004161AA6841EA02216A6800EB0210014384
:1057100060691D4A104001436161206840F080507B
:105720002060FCF75BFD074621E0A9682A7B09029F
:1057300041EAC2616A6800EB021001436069134AE2
:10574000E8E7298A124A490802EB4151AA6841EA6E
:1057500002216A6800EB0210014360690D4AD9E733
:10576000FCF73CFDC01B022801D9032606E0206897
:105770008000F5D56069A969084360613046BDE8DD
:10578000F0810000001002400F80FFF90F80FF073A
:105790000000E0FF0F809FFF18480021C26802F060
:1057A0000302012A0DD10168090704D4D0F894102E
:1057B000C1F3032102E00168C1F30311104A52F85A
:1057C0002110C26802F00302022A02D0032A03D188
:1057D00001E00C4900E00C49C268C368C2F303123F
:1057E000C3F306234B43521CB3FBF2F1C068C0F372
:1057F0004160401C4000B1FBF0F0704700100240D7
:10580000607B00080024F40000127A00F8B51A4DFD
:1058100006460024A86DC00002D5FCF7FDFF0DE090
:10582000A86D40F08050A865A86D00F080500090F1
:10583000FCF7F2FFA96D21F08051A965B0F5007F5A
:1058400003D0802E06D3022407E0802E05D9A02E97
:10585000F9D801E0702E00D101240848016821F038
:105860000F0121430160006800F00F00A04201D049
:105870000120F8BD0020F8BD0010024000200240C9
:105880000148FDF719BE00000C0100200168C9683D
:10589000026C1180016C891C0164B0F84610491E2D
:1058A000A0F84610B0F8461000290FD1816AB1F572
:1058B000005F09D001684A6822F040024A60C18F47
:1058C000002903D100F0BBB80149C1647047000052
:1058D000D5580008016882B0CA6800924A6822F070
:1058E00040024A6002B000F0AAB80000B0F84630AA
:1058F000026C0168012B13D9C9681180016C891CE5
:105900000164B0F84610891EA0F84610B0F84610A1
:1059100001290FD101684A6842F480524A6009E0C7
:10592000097B1170016C491C0164B0F84610491ED6
:10593000A0F84610B0F84610002912D1816AB1F5DE
:10594000005F01684A6807D022F060024A60C18F98
:10595000002906D100F073B842F480524A60014930
:10596000C164704769590008016882B00A7B0092DF
:10597000826C521E826409D14A6822F060024A6039
:10598000C18F002902D102B000F059B802B07047AF
:10599000816B02680988D160816B891C8163C18F2A
:1059A000491EC187C18F002917D1816AB1F5005FF7
:1059B000016809D04A6822F080024A60B0F84610B7
:1059C00000290AD100F03BB80A6842F480520A600C
:1059D0000068416821F0800141607047C38F826B8D
:1059E0000168022B07D31288CA60816B891C81630E
:1059F000C18F891E06E012780A73816B491C81638E
:105A0000C18F491EC187C18F002917D1816AB1F5A5
:105A1000005F016809D04A6822F080024A60B0F84D
:105A2000461000290AD100F00AB80A6842F48052F0
:105A30000A600068416821F080014160704710B53C
:105A40000446FCF7CBFB02462068416821F02001A8
:105A500041606421204600F0C1F818B1206E40F08A
:105A60002000206621688868C043C2064FF001000C
:105A700009D484F85D00206E40F0020020664FF6E5
:105A8000EF70886003E0216E29B184F85D00204644
:105A9000FDF711FD10BD94F85D1084F85D00042938
:105AA000204602D0FEF760FA10BDFDF7BDFF10BD25
:105AB00010B504460068416821F060014160FCF7C0
:105AC0008DFB02466421204600F04EF818B1206E8E
:105AD00040F020002066012084F85D002068816885
